:020000040000FA
:06000000E7EF14F012000E
:0A0006000C00A62B00000D03000003
:1000100002000000A32B00000A0300000300000000
:10002000702B00009C02000033000000192A000021
:100030001203000001000000622B0000DD0200003E
:100040000E000000602B0000FE0100000200000016
:100050002C2B00003402000034000000F82A0000BD
:100060000002000034000000C42A00009C010000CF
:1000700034000000902A00006801000034000000F5
:100080005C2A00003401000034000000282A00002F
:08009000000100003400000033
:080098000201D151010A01E04F
:1000A00012009CC0F8F29DC0F9F29EC0FAF29FC007
:1000B000FBF298EC11F0CFC2E9FFD0C2EAFFEE509C
:1000C000EFCFEAFFE96EFCC2EEFFFDC2EEFFFEC21B
:1000D000EEFFFFC2EEFF12000201D151010A01E062
:1000E0001200A0C0F8F2A1C0F9F2A2C0FAF2A3C0B7
:1000F000FBF298EC11F0CFC2E9FFD0C2EAFFEE505C
:10010000EFCFEAFFE96EFCC2EEFFFDC2EEFFFEC2DA
:10011000EEFFFFC2EEFF1200EBC29CF000019D6BF0
:100120009E6B9F6B060E9D27000E9E239F23EBC2A6
:10013000F8F29DC0F9F29EC0FAF29FC0FBF25BECB0
:1001400011F0FCC29CF0FDC29DF0FEC29EF0FFC209
:100150009FF0EBC2A0F00001A16BA26BA36B800E1D
:10016000A027050EA123000EA223A323A0C0F8F20E
:10017000A1C0F9F2A2C0FAF2A3C0FBF25BEC11F04D
:10018000FCC2A0F0FDC2A1F0FEC2A2F0FFC2A3F02B
:100190006FCF9BF20201400E686F9CC069F29DC058
:1001A0006AF29EC06BF29FC06CF226EC0CF06DC23E
:1001B000A4F00001A45102E00201EF810001A56B4F
:1001C00012006FCF9BF2A4C068F260EC0CF0020149
:1001D000EF9112000001A5AB10D0080EB65F000E23
:1001E000B75BB73504E2B6510008000EB75505E31A
:1001F000A56B020EA66F0201F3811200A0C061FF81
:10020000A1C062FFA2C063FFA3C064FF080E656EB9
:100210000001A65111E1CEC066FFCFC067FFD0C07C
:1002200068FFD1C069FFD2C06AFFD3C06BFFD4C0E2
:100230006CFFD5C06DFF1200800E666EAEC067FF0A
:10024000AFC068FFB0C069FFA651190A01E19AD09A
:10025000010A01E194D00F0A01E18ED0010A01E107
:1002600088D0030A01E17DD0010A01E177D0070AB5
:1002700072E0010A6DE0030A68E0010A60E01F0A0B
:100280005BE0010A56E0030A4EE0010A46E0070A75
:1002900041E0010A3CE0030A37E0010A30E00F0ABE
:1002A00028E0010A21E0030A1CE0010A12E0070A23
:1002B0000DE0010A08E0030A01E012000F016A6A7A
:1002C0006B6A030E0BD00F016A6A06D00F01010E94
:1002D00002D00F01050E6A6E6B6A040E6C6E050E7D
:1002E00057D00F016A6A08D00F01010E6A6E6B6A5F
:1002F0003DD00F01020E6A6E6B6A010E37D00F01FE
:100300006A6A6B6A020E32D00F01410E08D00F01EB
:10031000420E05D00F01430E02D00F01470E6A6E48
:100320006B6A040E23D00F016A6A6B6A060E6C6E4C
:100330002FD00F01100E05D00F01120E02D00F01A9
:10034000130E6A6E6B6A070E11D00F01110E0BD0DF
:100350000F01300E08D00F01310E05D00F01320E03
:1003600002D00F01360E6A6E6B6A090E6C6E060EB5
:100370000FD00F016A6A09D00F01200E05D00F01BE
:10038000210E02D00F01220E6A6E6B6A6C6A080E93
:100390006D6E12000F0E6514080801E07FD1000198
:1003A000A66B66CFA7F0E00EA715800A01E170D119
:1003B000E00A01E10CD1200A01E1AED0600A47E079
:1003C000200A01E067D1A5AB69D1A5AD67D1A551E0
:1003D000A719100B01E003D1BA0EAC25E96E000E8F
:1003E000AD21EA6E67CFEEFF68CFEEFF69CFEEFF7B
:1003F0006ACFEEFF6BCFEEFF6CCFEEFF6DCFEEFF5F
:10040000A7510E0BE842E81C070B146E156AE85062
:10041000AC271550AD23AC51B25DAD51B35902E2DA
:10042000A56B67D0A579200EA711F00BCE6FA7A101
:100430002CD1BA0EA86F000EA96F0201A80ECF6FC3
:10044000000ED06F12EC06F00001A56B1CD1A59B2D
:1004500067CFAEF067CFCFF068CFAFF068CFD0F006
:1004600069CFB0F069CFD1F0D26BD36BD46BD56BC1
:100470000201A80ECF6F000ED06F73EC06F00201E0
:10048000D25101E000D10001B1A344D0A7A326D0EE
:10049000A7A10AD0A7510C0BE842E842E81C030BC5
:1004A000010FAA6FAB6B04D0B2C0AAF0B3C0ABF01F
:1004B000B251AA191EE1B351AB191BE1A56B6A0E2B
:1004C000A86F0F0EA96F0201A80ECF6F000ED06F9C
:1004D00012EC06F00001600ECE6FD5D0A7A10BD0B4
:1004E0006C506D1006E1B2516A1802E1B3516B18FD
:1004F00002E00E0E76D0B2C0AAF0B3C0ABF0A58B6E
:10050000A58DA599AC6BAD6BF40EB66F010EB76FF0
:10051000600E38D0070E65D0A59B67CFAEF067CFD1
:10052000CFF068CFAFF068CFD0F069CFB0F069CF2F
:10053000D1F0D26BD36BD46BD56B0201A80ECF6F09
:10054000000ED06F73EC06F00201D25101E09BD097
:100550000001B1A13AD0AC6BAD6BA56B040ED88095
:10056000B255000EB35510E2F40EB66F010EB76F20
:10057000A58BD20EA86F000EA96FB2C0D2F0B3C087
:10058000D3F0410ECE6F81D0B251040A0CE0070ABD
:1005900008E0010A04E0030A08E14F0E05D04B0E03
:1005A00003D0470E01D0430ECE6FB2C0AAF0B3C045
:1005B000ABF0D20EA86F000EA96F0201A80ECF6F8C
:1005C000000ED06F67EC05F05ED0060E0AD0A5AB2A
:1005D00065D0A5BD63D0A551A719100B04E0A56B8C
:1005E000010EA66F52D0CF0EA86F000EA96FAC51AE
:1005F000B25DB86FAD51B359B96F070ED880B85519
:10060000000EB95502E2CE6B29D0A56BB851070A8E
:1006100023E0010A1DE0030A18E0010A12E0070ABC
:100620000CE0010A06E0030A1CE10D0ECE6F010E7C
:1006300016D00B0ECE6F020E12D0090ECE6F030E27
:100640000ED0070ECE6F040E0AD0050ECE6F07D067
:10065000030ECE6F060E03D0010ECE6F070EAA6FEB
:10066000AB6BA7B902D0CE9901D0CE890201A80EFA
:10067000CF6F000ED06F67EC05F00001AA51AC27D8
:10068000AB51AD23A579D2C2A6F00201F3811200CD
:0E069000A56B1200030EA66F0201F38112008B
:02069E00D9CFB2
:1006A000E6FFE1CFD9FFD950F90FE96EFF0EDA204E
:1006B000EA6EEE50ED1001E12DD1F90EDBCF14F012
:1006C000FA0EDBCF15F0040E145C000E155821E273
:1006D000FD0EDBCFE9FFFE0EDBCFEAFFEF50E66E4B
:1006E000FB0EDBCFE9FFFC0EDBCFEAFFE552E75064
:1006F000EF6EFB0EDB2AFC0E01E3DB2AFD0EDB2A8C
:10070000FE0E01E3DB2AF90EDB06FA0ECCE2DB0675
:10071000CAD7F90EDBCF14F0FA0EDBCF15F0080EB6
:10072000145C000E155838E2FD0EDBCFE9FFFE0E1B
:10073000DBCFEAFFEECF14F0EECF15F0EECF16F0E0
:10074000EFCF17F0FB0EDBCFE9FFFC0EDBCFEAFFAC
:1007500014C0EEFF15C0EEFF16C0EEFF17C0EEFF8F
:10076000D950FB0FE96EFF0EDA20EA6E040EEE267A
:10077000000EED22D950FD0FE96EFF0EDA20EA6E71
:10078000040EEE26000EED22D950F90FE96EFF0E91
:10079000DA20EA6E040EBAD0F90EDBCF14F0FA0EAE
:1007A000DBCF15F0100E145C000E155848E2FD0E5C
:1007B000DBCFE9FFFE0EDBCFEAFFEECF14F0EECF8A
:1007C00015F0EECF16F0EECF17F0EECF18F0EECF1B
:1007D00019F0EECF1AF0EFCF1BF0FB0EDBCFE9FFE5
:1007E000FC0EDBCFEAFF14C0EEFF15C0EEFF16C013
:1007F000EEFF17C0EEFF18C0EEFF19C0EEFF1AC0E3
:10080000EEFF1BC0EEFFD950FB0FE96EFF0EDA20A2
:10081000EA6E080EEE26000EED22D950FD0FE96EAD
:10082000FF0EDA20EA6E080EEE26000EED22D950F9
:10083000F90FE96EFF0EDA20EA6E080E67D0FD0EA2
:10084000DBCFE9FFFE0EDBCFEAFFEECF14F0EECFF9
:1008500015F0EECF16F0EECF17F0EECF18F0EECF8A
:1008600019F0EECF1AF0EECF1BF0EECF1CF0EECF6A
:100870001DF0EECF1EF0EECF1FF0EECF20F0EECF4A
:1008800021F0EECF22F0EFCF23F0FB0EDBCFE9FF1C
:10089000FC0EDBCFEAFF14C0EEFF15C0EEFF16C062
:1008A000EEFF17C0EEFF18C0EEFF19C0EEFF1AC032
:1008B000EEFF1BC0EEFF1CC0EEFF1DC0EEFF1EC012
:1008C000EEFF1FC0EEFF20C0EEFF21C0EEFF22C0F2
:1008D000EEFF23C0EEFFD950FB0FE96EFF0EDA20CA
:1008E000EA6E100EEE26000EED22D950FD0FE96ED5
:1008F000FF0EDA20EA6E100EEE26000EED22D95021
:10090000F90FE96EFF0EDA20EA6E100EEE5E000EB1
:10091000ED5AC9D6E552E7CFD9FF1200D9CFE6FF8D
:10092000E1CFD9FFD950F90FE96EFF0EDA20EA6E58
:10093000EE50ED1001E1C7D0F90EDBCF14F0FA0E46
:10094000DBCF15F0040E145C000E155822E2FD0EEC
:10095000DBCFF6FFFE0EDBCFF7FF0800F550E66EAB
:10096000FB0EDBCFE9FFFC0EDBCFEAFFE552E750E1
:10097000EF6EFB0EDB2AFC0E01E3DB2AFD0EDB2A09
:10098000FE0E01E3DB2AF90EDB06FA0ECBE2DB06F4
:10099000C9D7F90EDBCF14F0FA0EDBCF15F0080E35
:1009A000145C000E15583CE2FD0EDBCFF6FFFE0E88
:1009B000DBCFF7FF0900F5CF14F00900F5CF15F0F4
:1009C0000900F5CF16F00800F5CF17F0FB0EDBCFCE
:1009D000E9FFFC0EDBCFEAFF14C0EEFF15C0EEFF0F
:1009E00016C0EEFF17C0EEFFD950FB0FE96EFF0EE9
:1009F000DA20EA6E040EEE26000EED22D950FD0F2D
:100A0000E96EFF0EDA20EA6E040EEE26000EED22ED
:100A1000D950F90FE96EFF0EDA20EA6E040E4FD0BE
:100A2000FD0EDBCFF6FFFE0EDBCFF7FF0900F5CFA3
:100A300014F00900F5CF15F00900F5CF16F0090004
:100A4000F5CF17F00900F5CF18F00900F5CF19F030
:100A50000900F5CF1AF00800F5CF1BF0FB0EDBCF35
:100A6000E9FFFC0EDBCFEAFF14C0EEFF15C0EEFF7E
:100A700016C0EEFF17C0EEFF18C0EEFF19C0EEFF64
:100A80001AC0EEFF1BC0EEFFD950FB0FE96EFF0E40
:100A9000DA20EA6E080EEE26000EED22D950FD0F88
:100AA000E96EFF0EDA20EA6E080EEE26000EED2249
:100AB000D950F90FE96EFF0EDA20EA6E080EEE5EED
:0E0AC000000EED5A2FD7E552E7CFD9FF1200F6
:020ACE00CFC295
:100AD000E9FFD0C2EAFF090EEB50000901E19FD007
:100AE000CFC2E9FFD0C2EAFF090EEB50100B18E0AD
:100AF0000201D26B010ED16FCFC2E9FFD0C2EAFF73
:100B00000C0EE926000EEA22EECF14F0EFCF15F01E
:100B100005D015C0FAFF00011450F96EFADF12007B
:100B2000CFC2E9FFD0C2EAFF090EEB50070B010A62
:100B300039E0020A37E0060A6EE1CFC2E9FFD0C20F
:100B4000EAFF020EE926000EEA22EECFE6FFEFCF23
:100B5000E6FFCFC2E9FFD0C2EAFFEECFE6FFEFCF5C
:100B6000E6FFCFC2E9FFD0C2EAFF0C0EE926000E75
:100B7000EA22EECF16F0EFCF17F0CFC2E9FFD0C2D6
:100B8000EAFF040EE926000EEA2200011650EE24C8
:100B9000146E1750EE20156E14C0E6FFE66E8EEC54
:100BA00004F034D0CFC2E9FFD0C2EAFF020EE9263A
:100BB000000EEA22EECFE6FFEFCFE6FFCFC2E9FF5D
:100BC000D0C2EAFFEECFE6FFEFCFE6FFCFC2E9FFEC
:100BD000D0C2EAFF0C0EE926000EEA22EECF16F094
:100BE000EFCF17F0CFC2E9FFD0C2EAFF040EE9262B
:100BF000000EEA2200011650EE24146E1750EE206B
:100C0000156E14C0E6FFE66E4FEC03F0186E060E8C
:100C1000E15E185004D00201060ED26F12000201EC
:100C2000D26B1200CFC2E9FFD0C2EAFF090EEB502F
:100C3000000956E0CFC2E9FFD0C2EAFF090EEB502F
:100C4000100B18E00201D26B020ED16FCFC2E9FF88
:100C5000D0C2EAFF0C0EE926000EEA22EECF14F015
:100C6000EFCF15F005D015C0FAFF00011450F96E52
:100C7000FADF1200CFC2E9FFD0C2EAFF090EEB5043
:100C8000070B030A02E0010A27E1CFC2E9FFD0C245
:100C9000EAFF020EE926000EEA22EECFE6FFEFCFD2
:100CA000E6FFCFC2E9FFD0C2EAFF0C0EE926000E34
:100CB000EA22EECFE6FFEFCFE6FFCFC2E9FFD0C2D8
:100CC000EAFFEECFE6FFEFCFE6FF4FEC03F0146E46
:100CD000060EE15E145004D00201070ED26F12001E
:100CE0000201D26B1200CFC2E9FFD0C2EAFF060EAA
:100CF000E926000EEA22EECFDAF2EECFDBF2EFCFFA
:100D0000DCF2F00E0201DB15100A18E0700A10E0A8
:100D1000400A08E0200A45E1FE0ED36F200ED46F92
:100D2000070E3DD0360ED36F220ED46F020E37D091
:100D3000460ED36F220ED46F0E0E31D00F0EDB1580
:100D40000A0A1EE0020A0EE00A0A08E0020A29E185
:100D5000360ED36F210ED46F0F0E21D0AE0ED36F8F
:100D6000210E05D0DA5106E1C60ED36F210ED46FE5
:100D7000030E15D0DA0515E1DE0ED36F210E0DD06E
:100D8000DA5106E1E60ED36F210ED46F090E07D0BB
:100D9000DA0507E12E0ED36F220ED46F010ED56F48
:100DA00003D0080ED26F1200080ED26FD3C2F6FF26
:100DB000D4C2F7FF0900F5CFD6F20900F5CFD7F27C
:100DC0000900F5CFD8F20800F5CFD9F2D5516BE084
:100DD000DB51D75D62E1DA51D65D5FE1110ED26F72
:100DE000DC51D85D03E0400ED91557E0D3C2F6FFC1
:100DF000D4C2F7FF0900F5CF14F00900F5CF15F0C4
:100E00000900F5CF16F00900F5CF17F00900F5CF6E
:100E100018F00900F5CF19F00900F5CF1AF0080015
:100E2000F5CF1BF0CFC2E9FFD0C2EAFF060EE926DC
:100E3000000EEA2214C0EEFF15C0EEFF16C0EEFF52
:100E400017C0EEFF18C0EEFF19C0EEFF1AC0EEFF8C
:100E50001BC0EEFFD9AD07D0CFC2E9FFD0C2EAFF79
:100E6000080EDCC2EBFFD9A916D0D26BD16BCFC272
:100E7000E9FFD0C2EAFF0C0EE926000EEA22EECF0F
:100E800014F0EFCF15F005D015C0FAFF0001145093
:100E9000F96EFADF1200D26B1200080ED327000E93
:080EA000D423D50783D712000B
:080EA8000101AB0ED76FDF6FF3
:100EB000D86BD8C1E0F1D96BD9C1E1F1DA6BDAC1F5
:100EC000E2F1DB6BDBC1E3F1DC6BDCC1E4F1DD6B98
:100ED000DDC1E5F1DE6BDEC1E6F1EBC2F8F2020145
:100EE000F96BFA6BFB6B020EF927000EFA23C00EAA
:100EF000FB235BEC11F0FCC264F0FDC265F0FEC2A6
:100F000066F0FFC267F0EBC2F8F20201F96BFA6B10
:100F1000FB6B030EF927000EFA23C00EFB235BECDC
:100F200011F0FCC273F0FDC274F0FEC275F0FFC296
:100F300076F00001FE0E6C6F010E6D6F020E6B6F8E
:100F400000017A6F1200D9CFE6FFE1CFD9FF020E80
:100F5000E126DE6ADD6A7EEC12F080EC0FF0FE0E18
:100F6000E66E010EE66E17EC10F0E552E552020156
:100F7000F4A1F481010EDE6EDD6A020EE15C02E294
:100F8000E16AE552E16EE552E7CFD9FF12000101B7
:100F9000E95106E1E751040B03E0E795E781120010
:100FA000010EE95D10E3E951146E156A153404E28F
:100FB0001450F008000E155406E3E807E85103E169
:100FC000E9C1E8F1E78112000201D151020A1EE0F5
:100FD000030A01E0120060C0F8F261C0F9F262C0D9
:100FE000FAF263C0FBF298EC11F0CFC2E9FFD0C275
:100FF000EAFFEE50EFCFEAFFE96EFCC2EEFFFDC262
:10100000EEFFFEC2EEFFFFC2EEFF1200CFC2E9FF0D
:10101000D0C2EAFFEE50EFCFEAFFE96EEECFF8F272
:10102000EECFF9F2EECFFAF2EFCFFBF25BEC11F07C
:101030000201FDA91ED0600EE96E000EEA6EFC51A1
:10104000EE18146EFD51EE18156EFE51EE18166E68
:10105000FF51EE18176E1598145015101610171032
:1010600026E10201F0A102D037EC0EF00001618907
:101070001200600EE96E000EEA6EFC51EE18146E5E
:10108000FD51EE18156EFE51EE18166EFF51EE185A
:10109000176E1598145015101610171008E102015C
:1010A000F0B102D020EC0EF00001619912000201B3
:1010B000120ED26F12000201D151020A1EE0030A81
:1010C00001E0120064C0F8F265C0F9F266C0FAF2FD
:1010D00067C0FBF298EC11F0CFC2E9FFD0C2EAFF83
:1010E000EE50EFCFEAFFE96EFCC2EEFFFDC2EEFF6D
:1010F000FEC2EEFFFFC2EEFF1200CFC2E9FFD0C278
:10110000EAFFEE50EFCFEAFFE96EEECFF8F2EECF56
:10111000F9F2EECFFAF2EFCFFBF25BEC11F0020145
:10112000FDA91CD0640EE96E000EEA6EFC51EE18AB
:10113000146EFD51EE18156EFE51EE18166EFF512D
:10114000EE18176E1598145015101610171022E18E
:101150000201F1B1F191000165891200640EE96E9E
:10116000000EEA6EFC51EE18146EFD51EE18156E6D
:10117000FE51EE18166EFF51EE18176E15981450AA
:1011800015101610171006E10201F1A1F1810001FE
:10119000659912000201120ED26F1200D9CFE6FF3C
:1011A000E1CFD9FFE6520201D151020A0DE0030A54
:1011B0003CE1CFC2E9FFD0C2EAFFEE50EFCFEAFF39
:1011C000E96EE9C1EFFF31D0CFC2E9FFD0C2EAFF3B
:1011D000EE50EFCFEAFFE96EEFCFDFFF000EDF5CEE
:1011E0000FE3DF50146E156A153404E21450F00852
:1011F000000E155405E3DFCFE9F1E9C1E8F115D0A0
:10120000DF50146E156AFE0E141801E1155008E047
:10121000DF50166E176AFF0E161805E1175003E12E
:10122000DFCFE9F102D0120ED26FE552E552E7CFDF
:10123000D9FF120012001200120012001200120058
:041240001200120086
:0C1244000201D151020A10E0030A01E08F
:101250001200CFC2E9FFD0C2EAFFEE50EFCFEAFFA3
:10126000E96EF3C1EEFFF4C1EDFF1200CFC2E9FF5A
:10127000D0C2EAFFEE50EFCFEAFFE96EEECFF3F116
:10128000EDCFF4F10101F16BF351F41107E0F183BB
:10129000F3C1EEF1F4C1EFF1F06B1200F551F6116C
:1012A00019E0F75117E0800EF26FF185F183F751E5
:1012B000146E156AF5C108F0F6C109F0F7C10DF01A
:1012C00015C00EF07CEC14F006C0EEF107C0EFF193
:1012D0000101F06B12000201D151020A10E0030A71
:1012E00001E01200CFC2E9FFD0C2EAFFEE50EFCF1B
:1012F000EAFFE96EF5C1EEFFF6C1EDFF1200CFC2C5
:10130000E9FFD0C2EAFFEE50EFCFEAFFE96EEECF81
:10131000F5F1EDCFF6F10101F16BF351F41107E0B6
:10132000F183F3C1EEF1F4C1EFF1F06B1200F5516E
:10133000F61119E0F75117E0800EF26FF185F18395
:10134000F751146E156AF5C108F0F6C109F0F7C13E
:101350000DF015C00EF07CEC14F006C0EEF107C0E5
:10136000EFF10101F06B12000201D151020A0EE00F
:10137000030A01E01200CFC2E9FFD0C2EAFFEE503B
:10138000EFCFEAFFE96EF7C1EFFF1200CFC2E9FF2E
:10139000D0C2EAFFEE50EFCFEAFFE96EEFCFF7F1F0
:1013A0000101F16BF351F41107E0F183F3C1EEF1A8
:1013B000F4C1EFF1F06B1200F551F61119E0F7519D
:1013C00017E0800EF26FF185F183F751146E156A04
:1013D000F5C108F0F6C109F0F7C10DF015C00EF027
:1013E0007CEC14F006C0EEF107C0EFF10101F06BE8
:1013F0001200EBC2EAF10101EB6BEC6BED6B070E37
:10140000EB27000EEC23ED23EBC2F8F2EBC1F9F26F
:10141000ECC1FAF2EDC1FBF25BEC11F0FCC2EAF1B7
:10142000FDC2EBF1FEC2ECF1FFC2EDF10101F16B87
:10143000F351F4110AE0F1830201EE87F3C1EEF1FA
:10144000F4C1EFF10101F06B1200F551F61130E03B
:10145000F7512EE06FCF9BF20201040E686FEAC1D4
:1014600069F2EBC16AF2ECC16BF2EDC16CF226ECF1
:101470000CF06DC2F8F10101F8511AE00201EE879B
:101480000101800EF26FF185F183F751146E156A38
:10149000F5C108F0F6C109F0F7C10DF015C00EF066
:1014A0007CEC14F006C0EEF107C0EFF10101F06B27
:1014B00012006FCF9BF2F8C168F260EC0CF00201F1
:1014C000EE9712000101F1A51CD065AC1AD00F0EE9
:1014D0006514010816E10201F2870101F751146E4B
:1014E000156AF5C108F0F6C109F0F7C10DF015C095
:1014F0000EF07CEC14F006C0EEF107C0EFF1010134
:10150000F06B1200EAC161FFEBC162FFECC163FF47
:10151000EDC164FF010E656E0101F1B11AD0800EBC
:10152000F215F26FF1A502D0F27F01D0F29F020115
:10153000ECA502D0040E07D0ECA302D0050E03D018
:10154000ECA104D07F0E0101F211F26FF2C166FF2F
:101550001200F191666A12000101F1A33DD0080E5C
:10156000EE5F000EEF5BF05BF035000EF01907E662
:10157000D880000EEE55000EEF55000EF0552CE30E
:10158000F1B515D0F3C114F0F4C115F0166AEE0EE2
:10159000E96E010EEA6EEE501424EE6FEE50152047
:1015A000EF6FEE501620F06F0201F2871200F75134
:1015B000146E156AF5C108F0F6C109F0F7C10DF017
:1015C00015C00EF07CEC14F006C0EEF107C0EFF190
:0A15D0000101F06B11EC15F01200A0
:0615DA0002019A5101E13B
:1015E00096D09A51020A01E188D0030A01E0120064
:1015F0006EAE80D06F510BE077C200FF78C201FF62
:1016000079C202FF7AC203FF0D01D48102D00D011D
:10161000D491020170510BE07BC204FF7CC205FF34
:101620007DC206FF7EC207FF0D01D48302D00D01EB
:10163000D493020171510BE07FC208FF80C209FF01
:1016400081C20AFF82C20BFF0D01D48502D00D01B9
:10165000D495020172510BE083C20CFF84C20DFFCE
:1016600085C20EFF86C20FFF0D01D48702D00D0187
:10167000D497020173510BE087C210FF88C211FF9B
:1016800089C212FF8AC213FF0D01D48902D00D0155
:10169000D499020174510BE08BC214FF8CC215FF68
:1016A0008DC216FF8EC217FF0D01D48B02D00D0123
:1016B000D49B020175510BE08FC260FD90C261FDA9
:1016C00091C262FD92C263FD0D01D48D02D00D0165
:1016D000D49D020176510BE093C264FD94C265FD76
:1016E00095C266FD96C267FD0D01D48F09D00D012C
:1016F000D49F06D0800E6F6E12006FAE06D04DD80C
:1017000002019A6B9BC26FFF1200800E6F6E120077
:1017100002019A6B400E6F6E800E6F6E3ED80D0107
:10172000F86B606A0F01506B0E01206B306B406BE1
:10173000506B606B706B500E776E0D01D46BD56B78
:10174000D86BE06B110EE16F220EE26F330EE36F88
:10175000440EE46F550EE56F660EE66F770EE76F89
:10176000F36BF3CDF2FDF3CDF1FDF3CDF0FD0F0101
:101770001869E30E196F1A691B69200E736E0D014B
:101780001C0EFC6FFA6902016F6B706B716B726BF0
:10179000736B746B756B766B120002016E51080AE5
:1017A00011E00F0A0FE0010A0DE0030A0BE0010A45
:1017B00009E0070A07E0010A05E0030A03E0010A5D
:1017C00007E106D0410E706EBA0E716E070E05D09D
:1017D000400E706E9A0E716E010E726E12000F0145
:1017E00040B705D0430E776E68C297F20DD030B780
:1017F00005D0440E776E68C298F206D020B707D0A5
:10180000450E776E68C299F268C26DF2120002014D
:101810006D6B12000F0140AF06D0430E776E409FF4
:1018200097C26DF2120030AF06D0440E776E409F23
:1018300098C26DF2120020AF06D0450E776E409F21
:1018400099C26DF2120002016D6B1200D9CFE6FF52
:10185000E1CFD9FFE652DF6A080EDF5C2AE2DF50F3
:10186000EA6A6F0FE96E020EEA22EF5020E1DF50C4
:10187000EA6A6F0FE96E020EEA2268C2EFFF68C2E1
:101880006DF2DF50040DF3CFE9FFF4CFEAFF770EDE
:10189000E926020EEA2269C2EEFF6AC2EEFF6BC2BF
:1018A000EEFF6CC2EEFF0201010E9A6F04D0DF2A38
:1018B000D3D702016D6BE552E552E7CFD9FF120095
:1018C000D9CFE6FFE1CFD9FFE652DF6A080EDF5C31
:1018D00017E2DF50EA6A6F0FE96E020EEA22EF505C
:1018E0000201685D0BE1DF50EA6A6F0FE96E020EDC
:1018F000EA22EF6A010E9A6F6D6F04D0DF2AE6D7F5
:1019000002016D6BE552E552E7CFD9FF1200A4A2A8
:1019100022D0500E776E60BE13D00F0150AF02D0B0
:10192000510E08D00E0120AF02D0520E03D030AFBE
:1019300003D0530E776E04D002016D6BA492120097
:101940000F0E6014E96EEA6A6F0EE926020EEA22B3
:0C195000EFCF6DF2120002016D6B12006F
:04195C000201EC6B2D
:10196000EE6BEF6BF06BF16BF26BF36BF46BF56B93
:10197000F66BF76BEDC26EF288EC0BF033EC13F004
:10198000CBEC11F08CEC00F0F9EC09F0EDEC0AF086
:101990006F6A0101F1810201686BEFEC0BF082ECE0
:1019A0000AF060860201EC81120087EC0CF0020163
:1019B000ECA169D002016D5166E0C00E6D15800A80
:1019C0002DE0C00A1EE0400A5CE13F0E6D15040ADE
:1019D00012E0060A08E0030A54E10201EEA151D028
:1019E00050EC13F04ED00201EEA34BD0ECB549D031
:1019F000EBEC11F046D00201EEA743D062EC0AF006
:101A000040D00201ECB53DD03F0E02016D1539E129
:101A10000201EFA136D0CAEC01F033D00201ECB5DF
:101A200030D0ECA32ED03F0E02016D15030A21E049
:101A3000010A16E0030A0BE0010A23E10201F0A10A
:101A400020D0F7B11ED0F78140EC0EF01AD0020181
:101A5000F0A317D0F7B315D0F78398EC0EF011D0A0
:101A60000201F0A50ED0F7B50CD0F785F0EC0EF022
:101A700008D00201F0A705D0F7B703D0F78748ECEC
:101A80000FF0609EA49212000201010E686FEFEC4D
:101A90000BF00201ECA170D002016D5101E16CD09C
:101AA0000201F25111E0F2A70DD0EEA708D0020119
:101AB000040E686FEFEC0BF082EC0AF06086020116
:101AC000F2971200F26B1200F35113E0ECB554D010
:101AD000F3A10DD0EFA108D00201400E686FEFEC2A
:101AE0000BF0FEEC00F060860201F3911200F36B44
:101AF0001200F45141E0ECA33FD0ECB53DD0F4A18D
:101B00000DD0F1A108D00201800E686FEFEC0BF050
:101B100059EC0EF060860201F4911200F4A30DD08E
:101B2000F1A308D00201810E686FEFEC0BF0B1EC6D
:101B30000EF060860201F4931200F4A50DD0F1A519
:101B400008D00201820E686FEFEC0BF009EC0FF089
:101B500060860201F4951200F4A70DD0F1A708D019
:101B60000201830E686FEFEC0BF061EC0FF0608602
:101B70000201F4971200F46B12000AEC0CF002015F
:101B8000ECA136D002016D5133E0C00E6D15800A14
:101B900009E0C00A03E0400A04E012000201ECB5CB
:101BA00027D012000201ECA323D0ECB521D03F0EC8
:101BB00002016D15030A16E0010A0FE0030A08E0AE
:101BC000010A01E012000201F1A111D01EEF09F09B
:101BD0000201F1A30CD01FEF09F00201F1A507D01B
:101BE00020EF09F00201F1A702D021EF09F0120065
:101BF00012000201ECA123D0F15113E0F1A102D0B7
:101C00001AEC09F00201F1A302D01BEC09F0020169
:101C1000F1A502D01CEC09F00201F1A702D01DECE5
:101C200009F00201EE5104E0EEA702D0ACEC0AF09C
:101C30000201EF5104E0EFA102D0EAEC00F0120043
:101C40006FCF9BF20201800E686F60C069F261C0C5
:101C50006AF262C06BF263C06CF226EC0CF06DC2EB
:101C60006EF000016E5102E00201F08112006FCFB0
:101C70009BF26EC068F260EC0CF00201F091120071
:101C800069C0E9FF6AC0EAFF66CFEEFF67CFEEFFEB
:101C900068CFEEFF69CFEEFF6ACFEEFF6BCFEEFFAE
:101CA0006CCFEEFF6DCFEEFF0F0E65140001686F75
:101CB000120064C061FF65C062FF66C063FF67C059
:101CC00064FF6CC0E9FF6DC0EAFFEECF66FFEECFA8
:101CD00067FFEECF68FFEECF69FFEECF6AFFEECF72
:101CE0006BFFEECF6CFFEFCF6DFF6BC065FF120097
:101CF0006FCF9BF20201810E686F6FC069F270C0F6
:101D00006AF271C06BF272C06CF226EC0CF06DC21C
:101D10007DF000017D5102E00201F08312006FCFDF
:101D20009BF27DC068F260EC0CF00201F0931200AF
:101D300078C0E9FF79C0EAFF66CFEEFF67CFEEFF1C
:101D400068CFEEFF69CFEEFF6ACFEEFF6BCFEEFFFD
:101D50006CCFEEFF6DCFEEFF0F0E65140001776FB5
:101D6000120073C061FF74C062FF75C063FF76C06C
:101D700064FF7BC0E9FF7CC0EAFFEECF66FFEECFD9
:101D800067FFEECF68FFEECF69FFEECF6AFFEECFC1
:101D90006BFFEECF6CFFEFCF6DFF7AC065FF1200D7
:101DA0006FCF9BF20201820E686F7EC069F27FC026
:101DB0006AF280C06BF281C06CF226EC0CF06DC24E
:101DC0008CF000018C5102E00201F08512006FCF0F
:101DD0009BF28CC068F260EC0CF00201F0951200EE
:101DE00087C0E9FF88C0EAFF66CFEEFF67CFEEFF4E
:101DF00068CFEEFF69CFEEFF6ACFEEFF6BCFEEFF4D
:101E00006CCFEEFF6DCFEEFF0F0E65140001866FF5
:101E1000120082C061FF83C062FF84C063FF85C07F
:101E200064FF8AC0E9FF8BC0EAFFEECF66FFEECF0A
:101E300067FFEECF68FFEECF69FFEECF6AFFEECF10
:101E40006BFFEECF6CFFEFCF6DFF89C065FF120017
:101E50006FCF9BF20201830E686F8DC069F28EC056
:101E60006AF28FC06BF290C06CF226EC0CF06DC27F
:101E70009BF000019B5102E00201F08712006FCF3E
:101E80009BF29BC068F260EC0CF00201F09712002C
:101E900096C0E9FF97C0EAFF66CFEEFF67CFEEFF7F
:101EA00068CFEEFF69CFEEFF6ACFEEFF6BCFEEFF9C
:101EB0006CCFEEFF6DCFEEFF0F0E65140001956F36
:101EC000120091C061FF92C062FF93C063FF94C093
:101ED00064FF99C0E9FF9AC0EAFFEECF66FFEECF3C
:101EE00067FFEECF68FFEECF69FFEECF6AFFEECF60
:101EF0006BFFEECF6CFFEFCF6DFF98C065FF120058
:101F0000D9CFE6FFE1CFD9FF080EE126DE6ADD6A10
:101F1000D950020FE96EDACFEAFF9C0EEE6E020E88
:101F2000ED6E040EDB6A050EDB6A060EDB6A070E39
:101F3000DB6A020EDBCFE9FF030EDBCFEAFFEF50D7
:101F40006CE0020EDBCFE9FF030EDBCFEAFFEF50C0
:101F50002C0817E1DF2A010E01E3DB2AE76E020EEF
:101F6000DBCFE9FF030EDBCFEAFFE750E926000EE7
:101F7000EA22EF502C0805E0020EDB2A030E01E3F3
:101F8000DB2AD9CFE9FFDACFEAFF010EEE181CE118
:101F9000ED501AE1020EDBCFE9FF030EDBCFEAFFC3
:101FA000EF50E66E060EDBCFE9FF070EDBCFEAFF50
:101FB000E30EE926020EEA22E552E750EF6E060E26
:101FC000DB2A070E01E3DB2AD9CFE9FFDACFEAFFEC
:101FD000070EEE181CE1ED501AE1020EDBCFE9FF0F
:101FE000030EDBCFEAFFEF50E66E040EDBCFE9FF16
:101FF000050EDBCFEAFFDD0EE926020EEA22E552EE
:10200000E750EF6E040EDB2A050E01E3DB2A020E19
:10201000DB2A030E8EE3DB2A8CD7080EE15C02E29A
:10202000E16AE552E16EE552E7CFD9FF1200D9CF60
:10203000E6FFE1CFD9FF040EE126DD0EDE6E020ED3
:10204000DD6EFD0EDBCFE9FFFE0EDBCFEAFFEE6AB1
:10205000ED6A020EDB6A030EDB6A020EDBCF14F0C0
:10206000030EDBCF15F0D890155004E6060E145C75
:10207000000E155838E2DECFE9FFDDCFEAFFEF5062
:10208000D00F146E156A14BE1568FD0EDBCFE9FF84
:10209000FE0EDBCFEAFF1450EE261550ED22DECF08
:1020A000E9FFDDCFEAFF010EE926000EEA22EF503C
:1020B0002E0819E0FD0EDBCFE9FFFE0EDBCFEAFFB5
:1020C0000A0EEC02F3CFEDFFEF02F3CFEEFFF45078
:1020D000ED26DF2A010E01E3DB2A020EDB2A030EC6
:1020E000BCE3DB2ABAD7040EE15C02E2E16AE55206
:0A20F000E16EE552E7CFD9FF1200C0
:0620FA00000000000100DF
:1021000000260100FA20020000260100FA20030048
:1021100000260200FA20040000260400FA20050030
:1021200000260100FA20060000260200FA2007001F
:1021300000260400FA2000100005040062290110A6
:1021400000010100F901021000010400FA0105106C
:1021500000130400E2230810000518006629091086
:102160000005040070290A100005040075290C10F0
:1021700000130200D6120D1000130100681317108F
:102180000013020044121810000501007A291810EB
:10219000010504007B291810020504007F2918108E
:1021A0000305040083291810040504008729001280
:1021B000000501008B290012011104009800001293
:1021C00002110400D800001800050100182A0018A8
:1021D00001130400B6100018021301009C1101182D
:1021E00000030100FA20001A00050100172A001A56
:1021F000010504000A2A001A02050400122A001A26
:1022000003050400122A001A04050400122A001A09
:1022100005050400122A001A06050400122A001AF5
:1022200007050400122A001A08050400122A011AE0
:1022300000030100FA20002000000100FA20002025
:1022400000000100FA20006000010100D7010260D7
:1022500000050100162A026001030100D10103609C
:1022600000050100162A036001030100D00105608A
:1022700000050100162A056001030100D501066072
:1022800000050100162A066001030100D201076063
:1022900000050100162A076001030100D301086050
:1022A00000050100162A086001030100D401006244
:0622B00000030100DF0144
:0A22B6000201FBAB1ED0FAC2FCF2DD
:1022C000FBC2FDF2D890FC37FD37D890FC37FD37C4
:1022D000D890FC37FD37FDC2FFF2030EFA15146EDD
:1022E000E00EFC1514100809FD6FFFC2FCF2F8C2E5
:1022F000FFF2F9C2FEF217D0050EF8C2FCF2F9C2E5
:10230000FDF2000A06E00201D890FC37FD37E80430
:10231000FBE10201FF6BFCC2FEF2FDC2FCF2E00E2B
:10232000FE15FD6FFE6BFBBFFD89FBBDFD85120039
:102330000201F9A71CD0F9C214F0F8C215F0030E7F
:10234000D89015321432E804FBE114C0FEF2200EDE
:1023500002011510FF6F030EF915146EFC0EFE1529
:102360001410FE6FFBC2FCF2FAC2FDF20ED0F9C2ED
:1023700014F0F8C215F0050ED89015321432E804A6
:10238000FBE114C0FCF215C0FDF20201F9B5FF8DAE
:06239000F9B9FF8F1200F5
:0A2396006FCF9BF20201020E686F88
:1023A000FBC069F2FCC06AF2FDC06BF2FEC06CF2C9
:1023B00026EC0CF06DC2FFF00001FF5102E00201BB
:1023C000EE8312006FCF9BF2FFC068F260EC0CF05E
:1023D0000201EE9312000F0E651402E1C7EC07F044
:1023E00012000201D151020A1EE0030A01E01200AC
:1023F000FBC0F8F2FCC0F9F2FDC0FAF2FEC0FBF23D
:1024000098EC11F0CFC2E9FFD0C2EAFFEE50EFCF57
:10241000EAFFE96EFCC2EEFFFDC2EEFFFEC2EEFF78
:10242000FFC2EEFF1200CFC2E9FFD0C2EAFFEE50BA
:10243000EFCFEAFFE96EEECFF8F2EECFF9F2EECF92
:10244000FAF2EFCFFBF25BEC11F00201FDB50BD01D
:10245000B9DFFCC2FBF0FDC2FCF0FEC2FDF0FFC222
:0E246000FEF0CBEF11F00201120ED26F12004F
:02246E00400E1E
:10247000E66EE66A2C0EE66EEEEC12F0E552E552E0
:10248000E552ACA2FED7340EE66E020EE66E13ECF9
:1024900014F0E552E552ACA2FED79C0EE66E010E9A
:1024A000E66E13EC14F0E552E552ACA2FED7680ECE
:1024B000E66E010EE66E13EC14F0E552E552ACA2A6
:1024C000FED7340EE66E010EE66E13EC14F0E55204
:1024D000E552ACA2FED7000EE66E020EE66E13ECDD
:1024E00014F0E552E552ACA2FED71A0EE66E010ECC
:1024F000E66E13EC14F0E552E5521200D9CFE6FF78
:10250000E1CFD9FFE652DF6A0201CE6B5DEC14F039
:10251000DF6E240EDF5C0EE1280EE66E9C0EE66E8A
:10252000020EE66EE4EC13F0E552E552E5520201CC
:0E253000010ECE6FE552E552E7CFD9FF120043
:02253E00060E87
:10254000F66E000EF76E000EF86E03010900F550EE
:10255000056F0900F550066F03E1056701D03DD016
:102560000900F550006F0900F550016F0900F550A2
:10257000026F09000900F550E96E0900F550EA6E96
:10258000090009000900F550036F0900F550046FB8
:1025900009000900F6CF07F3F7CF08F3F8CF09F3E6
:1025A00000C3F6FF01C3F7FF02C3F8FF03010353A3
:1025B00002E1045307E00900F550EE6E0307F8E26C
:1025C0000407F9D707C3F6FF08C3F7FF09C3F8FFED
:0C25D00003010507000E065BBFD71200D8
:0425DC00D9CFE6FF6E
:1025E000DACFE6FFE1CFD9FFE2CFDAFFAC6AAB6A20
:1025F000FD0EDBB0AC88DBA202D0AC8CAB8CDBB4C4
:10260000AC8EDBA602D0AB8801D0AB8ADBB8AC8441
:102610009E98DBBAAB86DBAC02D09D8A01D09D9A36
:102620009E9ADBAE02D09D8801D09D98FB0EDB50B8
:10263000AF6EFB0EFC0EDBCF15F015C014F0156A63
:102640001450B06EAC8AAB8E949C948EAC50100B30
:1026500004E0AC50800B01E1948CE552E5CFDAFF49
:06266000E7CFD9FF1200D4
:0A2666006FCF9BF20201010E686FB6
:102670000201696B6A6B6B6B6C6B26EC0CF06DC2C4
:1026800011F30301115102E00201EE8112006FCF3C
:102690009BF211C368F260EC0CF00201EE911200A3
:1026A0000F0E6514020823E10201EB51675C02E0A2
:1026B00067501DE16650820A16E0030A12E0010A23
:1026C0000BE0820A06E0030A01E012000201EC833B
:1026D00005D00201EC8503D00201EC93EC950DEFDF
:1026E00015F010EC15F00EEC15F0AEEC0CF012003D
:1026F0000201D151020A05E0030A03E0010A01E0E8
:10270000120012000201D151020A05E0030A03E09F
:10271000010A01E0120012000201D151020A05E093
:10272000030A03E0010A01E0120012000201D15184
:10273000020A05E0030A03E0010A01E012001200A8
:102740000201D151020A05E0030A03E0010A01E097
:10275000120012000201D151020A05E0030A03E04F
:08276000010A01E01200120061
:08276800C6EC14F00001FB6B4C
:10277000100EFC6FFD6BFE6B0201020EEB6F02018F
:10278000ED6B040E0101F36FF46B0101F56BF66B59
:102790000101F76B39EC14F037EC12F054EC07F050
:1027A000AEEC0CF00201EC81EC83EC950201F181BE
:1027B000F183FDEC14F0A3EC07F0CDEC14F000096C
:0827C000F8E0F9EC0DF0F5D78B
:0827C800D9CFE6FFDACFE6FFEE
:1027D000E1CFD9FFE2CFDAFFE652E652DF6AFB0E25
:1027E000DB50DF5C18E29EAAFED75DEC14F0E76ECA
:1027F000010EE7CFDBFFFC0EDBCFE9FFFD0EDBCFE9
:10280000EAFF010EDBCFEFFFFC0EDB2AFD0E01E33A
:10281000DB2ADF2AE4D7E552E552E552E5CFDAFFBD
:06282000E7CFD9FF120012
:0A282600D9CFE6FFDACFE6FFE1CFDD
:10283000D9FFE2CFDAFFACA2FED7FC0EDBCFE9FF77
:10284000FD0EDBCFEAFFEF50E66E9AEC14F0E55296
:10285000FC0EDBCFE9FFDB2AFD0EDBCFEAFF01E355
:10286000DB2AEF50E8E1E552E5CFDAFFE7CFD9FF09
:02287000120054
:0E2872000F0EC16E929092929294929696845E
:1028800080908092809480961200D9CFE6FFE1CFAD
:10289000D9FFE652DF6A84A408D00301125102E195
:1028A000010EDF6E010E126F02D00301126BDF50BA
:0A28B000E552E552E7CFD9FF120010
:0628BA00D9CFE6FFDACFE2
:1028C000E6FFE1CFD9FFE2CFDAFFE652F20E0301D5
:1028D0000F17ABAC03D00F91ABB00F81ABB40F852A
:1028E000ABB20F87AE50DF6EDF50E552E552E5CF59
:0828F000DAFFE7CFD9FF120067
:0828F80008C012F008500D02A7
:10290000F4CF07F0F3CF06F009500E02F4CF09F030
:10291000F3CF08F00D02F3500726F4500822E86ABE
:10292000092212500E02F3500726F4500822E86ADA
:042930000922000C6C
:0C293400D9CFE6FFDACFE6FFE1CFD9FFF4
:10294000E2CFDAFFACAC04D0AC9003010FB3AC80A3
:10295000FD0EDB50AD6EE552E5CFDAFFE7CFD9FFD4
:02296000120063
:0E2962004A930800554C5452414C4A554400CB
:1029700056312E300056312E3000061111222233EE
:0B29800033222244442222555522221B
:01298B000348
:04298C00470ED56EAF
:10299000630ED66ED58EF2941200F2A407D0030116
:0E29A000640E106FE850D626F294010C000C65
:0229AE00000E19
:1029B000F36E00EE00F00D0E01D81200EA6002D0B6
:0E29C000EE6AFCD7F350E9601200EE6AFCD715
:0229CE001CEEFD
:1029D00000F02CEE00F0F86A019C9FEC12F013EC72
:0A29E00015F0B4EC13F0FBD7120061
:0629EA00122329022879E6
:0A29F0009438122329022879943844
:0629FA00EDEC0AF0D5EC43
:0A2A00000CF044EC0DF0BDEF0DF0FA
:062A0A0008010060080154
:092A100000620800000001080248
:012A190000BC
:062A1A001200FF00120093
:062A200012008C70120090
:022A260012009C
:082A28002450535246313033B3
:102A30002C30352C30302C30302C30312A32310DC6
:102A40000A0024505352463130332C30352C30306C
:0C2A50002C30312C30312A32300D0A00BD
:042A5C00245053525D
:102A6000463130332C30342C30302C30302C303157
:102A70002A32300D0A0024505352463130332C3064
:102A8000342C30302C30312C30312A32310D0A00C8
:102A900024505352463130332C30332C30302C30CC
:102AA000302C30312A32370D0A002450535246312F
:102AB00030332C30332C30302C30312C30312A3222
:042AC000360D0A00C5
:0C2AC40024505352463130332C30322C59
:102AD00030302C30302C30312A32360D0A00245060
:102AE0005352463130332C30322C30302C30312C94
:082AF00030312A32370D0A00D3
:082AF8002450535246313033E3
:102B00002C30312C30302C30302C30312A32350DF5
:102B10000A0024505352463130332C30312C30309F
:0C2B20002C30312C30312A32340D0A00E8
:042B2C00245053528C
:102B3000463130332C30302C30302C30302C30318A
:102B40002A32340D0A0024505352463130332C308F
:102B5000302C30302C30312C30312A32350D0A00F7
:022B6000000073
:0E2B6200000000000000000000000000000065
:102B70000000000000000000000000000000000055
:102B80000000000000000000000000000000000045
:102B90000000000000000000000000000000000035
:032BA00000000032
:032BA3000809001E
:022BA60001002C
:020000040030CA
:0100010002FC
:010002001FDE
:010003001EDE
:010005008278
:010006008178
:010008000FE8
:01000900C036
:01000A000FE6
:01000B00E014
:01000C000FE4
:01000D0040B2
:00000001FF
