:020000040000FA
:060000000FEF15F01200E5
:0A0006000B00E82B0000FE010000D3
:1000100002000000B62B00009C020000320000002D
:10002000692A0000EB02000001000000A82B00007C
:10003000DE0100000E000000A42B0000E50200001D
:1000400004000000702B00003402000034000000A7
:100050003C2B00000002000034000000082B0000D0
:100060009C01000034000000D42A00006801000058
:1000700034000000A02A0000340100003400000019
:0C0080006C2A00000001000034000000A9
:04008C000101D2514B
:10009000010A01E012009CC0D8F29DC0D9F29EC0B6
:1000A000DAF29FC0DBF2A2EC11F0D0C1E9FFD1C1BE
:1000B000EAFFEE50EFCFEAFFE96EDCC2EEFFDDC2F1
:1000C000EEFFDEC2EEFFDFC2EEFF12000101D251F1
:1000D000010A01E01200A0C0D8F2A1C0D9F2A2C06A
:1000E000DAF2A3C0DBF2A2EC11F0D0C1E9FFD1C17A
:1000F000EAFFEE50EFCFEAFFE96EDCC2EEFFDDC2B1
:10010000EEFFDEC2EEFFDFC2EEFF1200ECC19CF09C
:1001100000019D6B9E6B9F6B060E9D27000E9E231C
:100120009F23ECC1D8F29DC0D9F29EC0DAF29FC0E5
:10013000DBF265EC11F0DCC29CF0DDC29DF0DEC2AA
:100140009EF0DFC29FF0ECC1A0F00001A16BA26B9A
:10015000A36B800EA027050EA123000EA223A323CC
:10016000A0C0D8F2A1C0D9F2A2C0DAF2A3C0DBF2DB
:1001700065EC11F0DCC2A0F0DDC2A1F0DEC2A2F09D
:10018000DFC2A3F06FCF9BF20201400E686F9CC0EC
:1001900069F29DC06AF29EC06BF29FC06CF238ECAF
:1001A0000CF06DC2A4F00001A45102E00101F08145
:1001B0000001A56B12006FCF9BF2A4C068F272EC35
:1001C0000CF00101F09112000001A5AB10D0080E57
:1001D000B65F000EB75BB73504E2B6510008000EFB
:1001E000B75505E3A56B020EA66F0101F48112005D
:1001F000A0C061FFA1C062FFA2C063FFA3C064FFF3
:10020000080E656E0001A65111E1CEC066FFCFC099
:1002100067FFD0C068FFD1C069FFD2C06AFFD3C0FA
:100220006BFFD4C06CFFD5C06DFF1200800E666EF0
:10023000AEC067FFAFC068FFB0C069FFA651190A22
:1002400001E19AD0010A01E194D00F0A01E18ED0B8
:10025000010A01E188D0030A01E17DD0010A01E130
:1002600077D0070A72E0010A6DE0030A68E0010A2C
:1002700060E01F0A5BE0010A56E0030A4EE0010A53
:1002800046E0070A41E0010A3CE0030A37E0010AC0
:1002900030E00F0A28E0010A21E0030A1CE0010A0D
:1002A00012E0070A0DE0010A08E0030A01E012006B
:1002B0000F016A6A6B6A030E0BD00F016A6A06D0DF
:1002C0000F01010E02D00F01050E6A6E6B6A040E5B
:1002D0006C6E050E57D00F016A6A08D00F01010E2F
:1002E0006A6E6B6A3DD00F01020E6A6E6B6A010E78
:1002F00037D00F016A6A6B6A020E32D00F01410ECD
:1003000008D00F01420E05D00F01430E02D00F019D
:10031000470E6A6E6B6A040E23D00F016A6A6B6A1D
:10032000060E6C6E2FD00F01100E05D00F01120EAD
:1003300002D00F01130E6A6E6B6A070E11D00F0107
:10034000110E0BD00F01300E08D00F01310E05D069
:100350000F01320E02D00F01360E6A6E6B6A090E63
:100360006C6E060E0FD00F016A6A09D00F01200EC5
:1003700005D00F01210E02D00F01220E6A6E6B6AAA
:100380006C6A080E6D6E12000F0E6514080801E00D
:100390007FD10001A66B66CFA7F0E00EA715800AFB
:1003A00001E170D1E00A01E10CD1200A01E1AED0F7
:1003B000600A47E0200A01E067D1A5AB69D1A5AD8D
:1003C00067D1A551A719100B01E003D1BA0EAC25D6
:1003D000E96E000EAD21EA6E67CFEEFF68CFEEFF4B
:1003E00069CFEEFF6ACFEEFF6BCFEEFF6CCFEEFF73
:1003F0006DCFEEFFA7510E0BE842E81C070B146E01
:10040000156AE850AC271550AD23AC51B25DAD5123
:10041000B35902E2A56B67D0A579200EA711F00BA6
:10042000CE6FA7A12CD1BA0EA86F000EA96F010143
:10043000A80ED06F000ED16F0CEC06F00001A56B7A
:100440001CD1A59B67CFAEF067CFCFF068CFAFF0E0
:1004500068CFD0F069CFB0F069CFD1F0D26BD36B59
:10046000D46BD56B0101A80ED06F000ED16F6DEC6F
:1004700006F00101D35101E000D10001B1A344D045
:10048000A7A326D0A7A10AD0A7510C0BE842E842A7
:10049000E81C030B010FAA6FAB6B04D0B2C0AAF02B
:1004A000B3C0ABF0B251AA191EE1B351AB191BE1B5
:1004B000A56B6A0EA86F0F0EA96F0101A80ED06F71
:1004C000000ED16F0CEC06F00001600ECE6FD5D09F
:1004D000A7A10BD06C506D1006E1B2516A1802E171
:1004E000B3516B1802E00E0E76D0B2C0AAF0B3C0C2
:1004F000ABF0A58BA58DA599AC6BAD6BF40EB66F6B
:10050000010EB76F600E38D0070E65D0A59B67CF80
:10051000AEF067CFCFF068CFAFF068CFD0F069CF43
:10052000B0F069CFD1F0D26BD36BD46BD56B010136
:10053000A80ED06F000ED16F6DEC06F00101D35103
:1005400001E09BD00001B1A13AD0AC6BAD6BA56BC3
:10055000040ED880B255000EB35510E2F40EB66FFB
:10056000010EB76FA58BD20EA86F000EA96FB2C097
:10057000D2F0B3C0D3F0410ECE6F81D0B251040A95
:100580000CE0070A08E0010A04E0030A08E14F0E44
:1005900005D04B0E03D0470E01D0430ECE6FB2C034
:1005A000AAF0B3C0ABF0D20EA86F000EA96F010184
:1005B000A80ED06F000ED16F61EC05F05ED0060E74
:1005C0000AD0A5AB65D0A5BD63D0A551A719100B66
:1005D00004E0A56B010EA66F52D0CF0EA86F000EDF
:1005E000A96FAC51B25DB86FAD51B359B96F070E79
:1005F000D880B855000EB95502E2CE6B29D0A56B54
:10060000B851070A23E0010A1DE0030A18E0010AB5
:1006100012E0070A0CE0010A06E0030A1CE10D0ED5
:10062000CE6F010E16D00B0ECE6F020E12D0090E39
:10063000CE6F030E0ED0070ECE6F040E0AD0050E3D
:10064000CE6F07D0030ECE6F060E03D0010ECE6F15
:10065000070EAA6FAB6BA7B902D0CE9901D0CE8995
:100660000101A80ED06F000ED16F61EC05F0000102
:10067000AA51AC27AB51AD23A579D3C1A6F0010196
:10068000F4811200A56B1200030EA66F0101F48124
:02069000120056
:0E069200D9CFE6FFE1CFD9FFD950F90FE96EBD
:1006A000FF0EDA20EA6EEE50ED1001E12DD1F90EC9
:1006B000DBCF14F0FA0EDBCF15F0040E145C000E45
:1006C000155821E2FD0EDBCFE9FFFE0EDBCFEAFF7E
:1006D000EF50E66EFB0EDBCFE9FFFC0EDBCFEAFF4F
:1006E000E552E750EF6EFB0EDB2AFC0E01E3DB2A3E
:1006F000FD0EDB2AFE0E01E3DB2AF90EDB06FA0E05
:10070000CCE2DB06CAD7F90EDBCF14F0FA0EDBCF52
:1007100015F0080E145C000E155838E2FD0EDBCF04
:10072000E9FFFE0EDBCFEAFFEECF14F0EECF15F0BF
:10073000EECF16F0EFCF17F0FB0EDBCFE9FFFC0E8C
:10074000DBCFEAFF14C0EEFF15C0EEFF16C0EEFFD0
:1007500017C0EEFFD950FB0FE96EFF0EDA20EA6EEC
:10076000040EEE26000EED22D950FD0FE96EFF0EAD
:10077000DA20EA6E040EEE26000EED22D950F90FB3
:10078000E96EFF0EDA20EA6E040EBAD0F90EDBCF66
:1007900014F0FA0EDBCF15F0100E145C000E155895
:1007A00048E2FD0EDBCFE9FFFE0EDBCFEAFFEECF26
:1007B00014F0EECF15F0EECF16F0EECF17F0EECF2F
:1007C00018F0EECF19F0EECF1AF0EFCF1BF0FB0EC2
:1007D000DBCFE9FFFC0EDBCFEAFF14C0EEFF15C054
:1007E000EEFF16C0EEFF17C0EEFF18C0EEFF19C0F7
:1007F000EEFF1AC0EEFF1BC0EEFFD950FB0FE96EF3
:10080000FF0EDA20EA6E080EEE26000EED22D95019
:10081000FD0FE96EFF0EDA20EA6E080EEE26000EDE
:10082000ED22D950F90FE96EFF0EDA20EA6E080EBC
:1008300067D0FD0EDBCFE9FFFE0EDBCFEAFFEECF88
:1008400014F0EECF15F0EECF16F0EECF17F0EECF9E
:1008500018F0EECF19F0EECF1AF0EECF1BF0EECF7E
:100860001CF0EECF1DF0EECF1EF0EECF1FF0EECF5E
:1008700020F0EECF21F0EECF22F0EFCF23F0FB0EF1
:10088000DBCFE9FFFC0EDBCFEAFF14C0EEFF15C0A3
:10089000EEFF16C0EEFF17C0EEFF18C0EEFF19C046
:1008A000EEFF1AC0EEFF1BC0EEFF1CC0EEFF1DC026
:1008B000EEFF1EC0EEFF1FC0EEFF20C0EEFF21C006
:1008C000EEFF22C0EEFF23C0EEFFD950FB0FE96E12
:1008D000FF0EDA20EA6E100EEE26000EED22D95041
:1008E000FD0FE96EFF0EDA20EA6E100EEE26000E06
:1008F000ED22D950F90FE96EFF0EDA20EA6E100EE4
:10090000EE5E000EED5AC9D6E552E7CFD9FF1200D0
:10091000D9CFE6FFE1CFD9FFD950F90FE96EFF0E2D
:10092000DA20EA6EEE50ED1001E1C7D0F90EDBCF10
:1009300014F0FA0EDBCF15F0040E145C000E1558FF
:1009400022E2FD0EDBCFF6FFFE0EDBCFF7FF080045
:10095000F550E66EFB0EDBCFE9FFFC0EDBCFEAFFC6
:10096000E552E750EF6EFB0EDB2AFC0E01E3DB2ABB
:10097000FD0EDB2AFE0E01E3DB2AF90EDB06FA0E82
:10098000CBE2DB06C9D7F90EDBCF14F0FA0EDBCFD2
:1009900015F0080E145C000E15583CE2FD0EDBCF7E
:1009A000F6FFFE0EDBCFF7FF0900F5CF14F00900CC
:1009B000F5CF15F00900F5CF16F00800F5CF17F0C8
:1009C000FB0EDBCFE9FFFC0EDBCFEAFF14C0EEFF2E
:1009D00015C0EEFF16C0EEFF17C0EEFFD950FB0F9B
:1009E000E96EFF0EDA20EA6E040EEE26000EED220E
:1009F000D950FD0FE96EFF0EDA20EA6E040EEE26E6
:100A0000000EED22D950F90FE96EFF0EDA20EA6EE2
:100A1000040E4FD0FD0EDBCFF6FFFE0EDBCFF7FF4F
:100A20000900F5CF14F00900F5CF15F00900F5CF56
:100A300016F00900F5CF17F00900F5CF18F00900FE
:100A4000F5CF19F00900F5CF1AF00800F5CF1BF02B
:100A5000FB0EDBCFE9FFFC0EDBCFEAFF14C0EEFF9D
:100A600015C0EEFF16C0EEFF17C0EEFF18C0EEFF78
:100A700019C0EEFF1AC0EEFF1BC0EEFFD950FB0FEE
:100A8000E96EFF0EDA20EA6E080EEE26000EED2269
:100A9000D950FD0FE96EFF0EDA20EA6E080EEE2641
:100AA000000EED22D950F90FE96EFF0EDA20EA6E42
:100AB000080EEE5E000EED5A2FD7E552E7CFD9FFB4
:020AC000120022
:0E0AC200D0C1E9FFD1C1EAFF090EEB500009D7
:100AD00001E19FD0D0C1E9FFD1C1EAFF090EEB507F
:100AE000100B18E00101D36B010ED26FD0C1E9FFEA
:100AF000D1C1EAFF0C0EE926000EEA22EECF14F077
:100B0000EFCF15F005D015C0FAFF00011450F96EB3
:100B1000FADF1200D0C1E9FFD1C1EAFF090EEB50A4
:100B2000070B010A39E0020A37E0060A6EE1D0C17C
:100B3000E9FFD1C1EAFF020EE926000EEA22EECF5C
:100B4000E6FFEFCFE6FFD0C1E9FFD1C1EAFFEECF6C
:100B5000E6FFEFCFE6FFD0C1E9FFD1C1EAFF0C0EFF
:100B6000E926000EEA22EECF16F0EFCF17F0D0C143
:100B7000E9FFD1C1EAFF040EE926000EEA220001D6
:100B80001650EE24146E1750EE20156E14C0E6FFBA
:100B9000E66E88EC04F034D0D0C1E9FFD1C1EAFFA1
:100BA000020EE926000EEA22EECFE6FFEFCFE6FFC7
:100BB000D0C1E9FFD1C1EAFFEECFE6FFEFCFE6FFFC
:100BC000D0C1E9FFD1C1EAFF0C0EE926000EEA22EE
:100BD000EECF16F0EFCF17F0D0C1E9FFD1C1EAFF99
:100BE000040EE926000EEA2200011650EE24146ECF
:100BF0001750EE20156E14C0E6FFE66E49EC03F0C8
:100C0000186E060EE15E185004D00101060ED36F77
:100C100012000101D36B1200D0C1E9FFD1C1EAFF7C
:100C2000090EEB50000956E0D0C1E9FFD1C1EAFF3F
:100C3000090EEB50100B18E00101D36B020ED26FBE
:100C4000D0C1E9FFD1C1EAFF0C0EE926000EEA226D
:100C5000EECF14F0EFCF15F005D015C0FAFF00016C
:100C60001450F96EFADF1200D0C1E9FFD1C1EAFFDA
:100C7000090EEB50070B030A02E0010A27E1D0C17D
:100C8000E9FFD1C1EAFF020EE926000EEA22EECF0B
:100C9000E6FFEFCFE6FFD0C1E9FFD1C1EAFF0C0EBE
:100CA000E926000EEA22EECFE6FFEFCFE6FFD0C145
:100CB000E9FFD1C1EAFFEECFE6FFEFCFE6FF49EC57
:100CC00003F0146E060EE15E145004D00101070E0D
:100CD000D36F12000101D36B1200D0C1E9FFD1C163
:100CE000EAFF060EE926000EEA22EECFDBF1EECF98
:100CF000DCF1EFCFDDF1F00E0101DC15100A18E098
:100D0000700A10E0400A08E0200A45E1120ED46F94
:100D1000210ED56F070E3DD04A0ED46F220ED56F2F
:100D2000020E37D05A0ED46F220ED56F0E0E31D070
:100D30000F0EDC150A0A1EE0020A0EE00A0A08E09D
:100D4000020A29E14A0ED46F210ED56F0F0E21D071
:100D5000C20ED46F210E05D0DB5106E1DA0ED46F3E
:100D6000210ED56F030E15D0DB0515E1F20ED46F01
:100D7000210E0DD0DB5106E1FA0ED46F210ED56F96
:100D8000090E07D0DB0507E1420ED46F220ED56FA6
:100D9000010ED66F03D0080ED36F1200080ED36F6A
:100DA000D4C1F6FFD5C1F7FF0900F5CFD7F109008F
:100DB000F5CFD8F10900F5CFD9F10800F5CFDAF178
:100DC000D6516BE0DC51D85D62E1DB51D75D5FE16C
:100DD000110ED36FDD51D95D03E0400EDA1557E0F7
:100DE000D4C1F6FFD5C1F7FF0900F5CF14F0090013
:100DF000F5CF15F00900F5CF16F00900F5CF17F083
:100E00000900F5CF18F00900F5CF19F00900F5CF6A
:100E10001AF00800F5CF1BF0D0C1E9FFD1C1EAFFFD
:100E2000060EE926000EEA2214C0EEFF15C0EEFF02
:100E300016C0EEFF17C0EEFF18C0EEFF19C0EEFFA0
:100E40001AC0EEFF1BC0EEFFDAAD07D0D0C1E9FF3C
:100E5000D1C1EAFF080EDDC1EBFFDAA916D0D36BD2
:100E6000D26BD0C1E9FFD1C1EAFF0C0EE926000E1A
:100E7000EA22EECF14F0EFCF15F005D015C0FAFF3F
:100E800000011450F96EFADF1200D36B1200080E45
:0C0E9000D427000ED523D60783D712000C
:040E9C000001DD6B09
:100EA000DDC0E5F0DE6BDEC0E6F0DF6BDFC0E7F053
:100EB000E06BE0C0E8F0E16BE1C0E9F0E26BE2C0BA
:100EC000EAF0E36BE3C0EBF0E46BE4C0ECF0ECC100
:100ED000D8F20201D96BDA6BDB6B800ED827010EDA
:100EE000D923000EDA23C00EDB2365EC11F0DCC23F
:100EF00064F0DDC265F0DEC266F0DFC267F0ECC10F
:100F0000D8F20201D96BDA6BDB6B800ED827020EA8
:100F1000D923000EDA23C00EDB2365EC11F0DCC20E
:100F200073F0DDC274F0DEC275F0DFC276F000014E
:100F3000E50E6C6F020E6D6F020E6B6F00017A6F23
:100F400012000101ED51020B2FE0ED51040B2CE1D9
:100F5000E5C2E7F288EC12F0F3CF14F0F4CF15F00D
:100F6000F350F4100AE092EC0FF0E50EE66E020E7C
:100F7000E66E29EC10F0E552E5520201E751146EDD
:100F8000156AE551141802E1E651151802E0010E48
:100F900001D0000EE86F0101F551010B05E10201DE
:100FA000E85102E00101F58112000001EF5106E174
:100FB000ED51040B03E0ED95ED811200010EEF5DA4
:100FC00010E3EF51146E156A153404E21450F00862
:100FD000000E155406E3EE07EE5103E1EFC0EEF00C
:100FE000ED8112000101D251020A1EE0030A01E064
:100FF000120060C0D8F261C0D9F262C0DAF263C0F8
:10100000DBF2A2EC11F0D0C1E9FFD1C1EAFFEE5052
:10101000EFCFEAFFE96EDCC2EEFFDDC2EEFFDEC21B
:10102000EEFFDFC2EEFF1200D0C1E9FFD1C1EAFF3F
:10103000EE50EFCFEAFFE96EEECFD8F2EECFD9F265
:10104000EECFDAF2EFCFDBF265EC11F00201DDA9B1
:101050001ED0600EE96E000EEA6EDC51EE18146EC2
:10106000DD51EE18156EDE51EE18166EDF51EE18DA
:10107000176E1598145015101610171026E101015F
:10108000F1A102D049EC0EF0000161891200600E5E
:10109000E96E000EEA6EDC51EE18146EDD51EE18AA
:1010A000156EDE51EE18166EDF51EE18176E15989C
:1010B000145015101610171008E10101F1B102D0FB
:1010C00032EC0EF00001619912000101120ED36F93
:1010D00012000101D251020A1EE0030A01E01200CF
:1010E00064C0D8F265C0D9F266C0DAF267C0DBF23C
:1010F000A2EC11F0D0C1E9FFD1C1EAFFEE50EFCF71
:10110000EAFFE96EDCC2EEFFDDC2EEFFDEC2EEFFFB
:10111000DFC2EEFF1200D0C1E9FFD1C1EAFFEE50FD
:10112000EFCFEAFFE96EEECFD8F2EECFD9F2EECFF5
:10113000DAF2EFCFDBF265EC11F00201DDA91CD091
:10114000640EE96E000EEA6EDC51EE18146EDD518D
:10115000EE18156EDE51EE18166EDF51EE18176E92
:101160001598145015101610171022E10101F2B154
:10117000F291000165891200640EE96E000EEA6EBC
:10118000DC51EE18146EDD51EE18156EDE51EE18BE
:10119000166EDF51EE18176E1598145015101610B4
:1011A000171006E10101F2A1F28100016599120018
:1011B0000101120ED36F1200D9CFE6FFE1CFD9FFA4
:1011C000E6520101D251020A0DE0030A3CE1D0C10E
:1011D000E9FFD1C1EAFFEE50EFCFEAFFE96EEFC0C1
:1011E000EFFF31D0D0C1E9FFD1C1EAFFEE50EFCF20
:1011F000EAFFE96EEFCFDFFF000EDF5C0FE3DF50A9
:10120000146E156A153404E21450F008000E1554DB
:1012100005E3DFCFEFF0EFC0EEF015D0DF50146E36
:10122000156AFE0E141801E1155008E0DF50166E25
:10123000176AFF0E161805E1175003E1DFCFEFF034
:1012400002D0120ED36FE552E552E7CFD9FF12005C
:1012500012001200120012001200120012001200FE
:101260000101D251020A10E0030A01E01200D0C1CC
:10127000E9FFD1C1EAFFEE50EFCFEAFFE96EF9C016
:10128000EEFFFAC0EDFF1200D0C1E9FFD1C1EAFFC5
:10129000EE50EFCFEAFFE96EEECFF9F0EDCFFAF0C6
:1012A0000001F76BF951FA1107E0F783F9C0F4F088
:1012B000FAC0F5F0F66B1200FB51FC1119E0FD517C
:1012C00017E0800EF86FF785F783FD51146E156AED
:1012D000FBC008F0FCC009F0FDC00DF015C00EF019
:1012E000A4EC14F006C0F4F007C0F5F00001F66BB2
:1012F00012000101D251020A10E0030A01E01200BB
:10130000D0C1E9FFD1C1EAFFEE50EFCFEAFFE96EAD
:10131000FBC0EEFFFCC0EDFF1200D0C1E9FFD1C160
:10132000EAFFEE50EFCFEAFFE96EEECFFBF0EDCF34
:10133000FCF00001F76BF951FA1107E0F783F9C0EF
:10134000F4F0FAC0F5F0F66B1200FB51FC1119E055
:10135000FD5117E0800EF86FF785F783FD51146E8D
:10136000156AFBC008F0FCC009F0FDC00DF015C007
:101370000EF0A4EC14F006C0F4F007C0F5F0000184
:10138000F66B12000101D251020A0EE0030A01E0DD
:101390001200D0C1E9FFD1C1EAFFEE50EFCFEAFF62
:1013A000E96EFDC0EFFF1200D0C1E9FFD1C1EAFF35
:1013B000EE50EFCFEAFFE96EEFCFFDF00001F76BE3
:1013C000F951FA1107E0F783F9C0F4F0FAC0F5F02B
:1013D000F66B1200FB51FC1119E0FD5117E0800E75
:1013E000F86FF785F783FD51146E156AFBC008F09E
:1013F000FCC009F0FDC00DF015C00EF0A4EC14F017
:1014000006C0F4F007C0F5F00001F66B1200ECC165
:10141000F0F00001F16BF26BF36B070EF127000E99
:10142000F223F323ECC1D8F2F1C0D9F2F2C0DAF220
:10143000F3C0DBF265EC11F0DCC2F0F0DDC2F1F0DC
:10144000DEC2F2F0DFC2F3F00001F76BF951FA11DE
:101450000AE0F7830101EF87F9C0F4F0FAC0F5F074
:101460000001F66B1200FB51FC1130E0FD512EE043
:101470006FCF9BF20201040E686FF0C069F2F1C0F9
:101480006AF2F2C06BF2F3C06CF238EC0CF06DC291
:10149000FEF00001FE511AE00101EF870001800E0D
:1014A000F86FF785F783FD51146E156AFBC008F0DD
:1014B000FCC009F0FDC00DF015C00EF0A4EC14F056
:1014C00006C0F4F007C0F5F00001F66B12006FCF14
:1014D0009BF2FEC068F272EC0CF00101EF97120073
:1014E0000001F7A51CD065AC1AD00F0E65140108D9
:1014F00016E10101F3870001FD51146E156AFBC06E
:1015000008F0FCC009F0FDC00DF015C00EF0A4EC11
:1015100014F006C0F4F007C0F5F00001F66B1200FD
:10152000F0C061FFF1C062FFF2C063FFF3C064FF6F
:10153000010E656E0001F7B11AD0800EF815F86F34
:10154000F7A502D0F87F01D0F89F0101EDA502D0E8
:10155000040E07D0EDA302D0050E03D0EDA104D0F8
:101560007F0E0001F811F86FF8C066FF1200F791C6
:10157000666A12000001F7A33DD0080EF45F000E6A
:10158000F55BF65BF635000EF61907E6D880000E1F
:10159000F455000EF555000EF6552CE3F7B515D0B1
:1015A000F9C014F0FAC015F0166AF40EE96E000ED8
:1015B000EA6EEE501424F46FEE501520F56FEE50E5
:1015C0001620F66F0101F3871200FD51146E156AA3
:1015D000FBC008F0FCC009F0FDC00DF015C00EF016
:1015E000A4EC14F006C0F4F007C0F5F00001F66BAF
:0615F00083EC14F0120070
:0A15F60002019A5101E196D09A51CA
:10160000020A01E188D0030A01E012006EAE80D028
:101610006F510BE077C200FF78C201FF79C202FF71
:101620007AC203FF0D01D48102D00D01D4910201D1
:1016300070510BE07BC204FF7CC205FF7DC206FF38
:101640007EC207FF0D01D48302D00D01D4930201A5
:1016500071510BE07FC208FF80C209FF81C20AFFFF
:1016600082C20BFF0D01D48502D00D01D495020179
:1016700072510BE083C20CFF84C20DFF85C20EFFC6
:1016800086C20FFF0D01D48702D00D01D49702014D
:1016900073510BE087C210FF88C211FF89C212FF8D
:1016A0008AC213FF0D01D48902D00D01D499020121
:1016B00074510BE08BC214FF8CC215FF8DC216FF54
:1016C0008EC217FF0D01D48B02D00D01D49B0201F5
:1016D00075510BE08FC260FD90C261FD91C262FD49
:1016E00092C263FD0D01D48D02D00D01D49D020183
:1016F00076510BE093C264FD94C265FD95C266FD10
:1017000096C267FD0D01D48F09D00D01D49F06D07C
:10171000800E6F6E12006FAE06D04DD802019A6B2C
:101720009BC26FFF1200800E6F6E120002019A6B57
:10173000400E6F6E800E6F6E3ED80D01F86B606AC2
:101740000F01506B0E01206B306B406B506B606B68
:10175000706B500E776E0D01D46BD56BD86BE06B50
:10176000110EE16F220EE26F330EE36F440EE46F51
:10177000550EE56F660EE66F770EE76FF36BF3CDF0
:10178000F2FDF3CDF1FDF3CDF0FD0F011869E30E8D
:10179000196F1A691B69200E736E0D011C0EFC6F08
:1017A000FA6902016F6B706B716B726B736B746BA8
:1017B000756B766B120002016E51080A15E00F0A74
:1017C00013E0010A11E0030A0BE0010A0DE0070A29
:1017D0000BE0010A09E0030A07E0010A0BE10AD065
:1017E000040E706EBC0E09D0410E706EBA0E716E92
:1017F000070E05D0400E706E9A0E716E010E726E5D
:1018000012000F0140B705D0430E776E68C297F201
:101810000DD030B705D0440E776E68C298F206D06E
:1018200020B707D0450E776E68C299F268C26DF294
:10183000120002016D6B12000F0140AF06D0430E83
:10184000776E409F97C26DF2120030AF06D0440E03
:10185000776E409F98C26DF2120020AF06D0450E01
:10186000776E409F99C26DF2120002016D6B1200FB
:10187000D9CFE6FFE1CFD9FFE652DF6A080EDF5C81
:101880002AE2DF50EA6A6F0FE96E020EEA22EF5099
:1018900020E1DF50EA6A6F0FE96E020EEA2268C2A9
:1018A000EFFF68C26DF2DF50040DF3CFE9FFF4CF14
:1018B000EAFF770EE926020EEA2269C2EEFF6AC24B
:1018C000EEFF6BC2EEFF6CC2EEFF0201010E9A6FDB
:1018D00004D0DF2AD3D702016D6BE552E552E7CF82
:1018E000D9FF1200D9CFE6FFE1CFD9FFE652DF6A78
:1018F000080EDF5C17E2DF50EA6A6F0FE96E020E36
:10190000EA22EF500201685D0BE1DF50EA6A6F0FD7
:10191000E96E020EEA22EF6A010E9A6F6D6F04D033
:10192000DF2AE6D702016D6BE552E552E7CFD9FF1A
:101930001200A4A222D0500E776E60BE13D00F0109
:1019400050AF02D0510E08D00E0120AF02D0520E7F
:1019500003D030AF03D0530E776E04D002016D6B0D
:10196000A49212000F0E6014E96EEA6A6F0EE92667
:10197000020EEA22EFCF6DF2120002016D6B12002F
:101980000101ED6BEF6BF06BF16BF26BF36BF46BD2
:10199000F56BF66BF76BF86BEEC16EF296EC0BF035
:1019A0003DEC13F0D5EC11F086EC00F007EC0AF0FA
:1019B000FBEC0AF06F6A0001F7810201686B01EC31
:1019C0000CF090EC0AF060860101ED81120099ECB8
:1019D0000CF00101EDA169D002016D5166E0C00E6D
:1019E0006D15800A2DE0C00A1EE0400A5CE13F0E42
:1019F0006D15040A12E0060A08E0030A54E1010129
:101A0000EFA151D05AEC13F04ED00101EFA34BD00F
:101A1000EDB549D0F5EC11F046D00101EFA743D068
:101A200070EC0AF040D00101EDB53DD03F0E02014F
:101A30006D1539E10101F0A136D0C4EC01F033D0CD
:101A40000101EDB530D0EDA32ED03F0E02016D1592
:101A5000030A21E0010A16E0030A0BE0010A23E170
:101A60000101F1A120D0F8B11ED0F88152EC0EF0A6
:101A70001AD00101F1A317D0F8B315D0F883AAEC5E
:101A80000EF011D00101F1A50ED0F8B50CD0F885FB
:101A900002EC0FF008D00101F1A705D0F8B703D090
:101AA000F8875AEC0FF0609EA49212000201010E1A
:101AB000686F01EC0CF00101EDA170D002016D51D5
:101AC00001E16CD00101F35111E0F3A70DD0EFA7B4
:101AD00008D00201040E686F01EC0CF090EC0AF0E3
:101AE00060860101F3971200F36B1200F45113E0CA
:101AF000EDB554D0F4A10DD0F0A108D00201400EF4
:101B0000686F01EC0CF0F8EC00F060860101F491D4
:101B10001200F46B1200F55141E0EDA33FD0EDB59A
:101B20003DD0F5A10DD0F2A108D00201800E686F62
:101B300001EC0CF06BEC0EF060860101F5911200E7
:101B4000F5A30DD0F2A308D00201810E686F01EC5D
:101B50000CF0C3EC0EF060860101F5931200F5A5C0
:101B60000DD0F2A508D00201820E686F01EC0CF0D6
:101B70001BEC0FF060860101F5951200F5A70DD062
:101B8000F2A708D00201830E686F01EC0CF073EC31
:101B90000FF060860101F5971200F56B12001CEC46
:101BA0000CF00101EDA136D002016D5133E0C00E01
:101BB0006D15800A09E0C00A03E0400A04E0120043
:101BC0000101EDB527D012000101EDA323D0EDB541
:101BD00021D03F0E02016D15030A16E0010A0FE045
:101BE000030A08E0010A01E012000101F2A111D08C
:101BF0002CEF09F00101F2A30CD02DEF09F0010147
:101C0000F2A507D02EEF09F00101F2A702D02FEFC5
:101C100009F0120012000101EDA123D0F25113E0EE
:101C2000F2A102D028EC09F00101F2A302D029ECC4
:101C300009F00101F2A502D02AEC09F00101F2A796
:101C400002D02BEC09F00101EF5104E0EFA702D024
:101C5000BAEC0AF00101F05104E0F0A102D0E4EC8A
:041C600000F012007E
:0C1C64006FCF9BF20201800E686F60C021
:101C700069F261C06AF262C06BF263C06CF238EC68
:101C80000CF06DC26EF000016E5102E00101F181B5
:101C900012006FCF9BF26EC068F272EC0CF0010183
:101CA000F191120069C0E9FF6AC0EAFF66CFEEFF5A
:101CB00067CFEEFF68CFEEFF69CFEEFF6ACFEEFF92
:101CC0006BCFEEFF6CCFEEFF6DCFEEFF0F0E651406
:101CD0000001686F120064C061FF65C062FF66C0EA
:101CE00063FF67C064FF6CC0E9FF6DC0EAFFEECF21
:101CF00066FFEECF67FFEECF68FFEECF69FFEECF56
:101D00006AFFEECF6BFFEECF6CFFEFCF6DFF6BC0C6
:101D100065FF12006FCF9BF20201810E686F6FC0EA
:101D200069F270C06AF271C06BF272C06CF238EC8A
:101D30000CF06DC27DF000017D5102E00101F183E4
:101D400012006FCF9BF27DC068F272EC0CF00101C3
:101D5000F193120078C0E9FF79C0EAFF66CFEEFF89
:101D600067CFEEFF68CFEEFF69CFEEFF6ACFEEFFE1
:101D70006BCFEEFF6CCFEEFF6DCFEEFF0F0E651455
:101D80000001776F120073C061FF74C062FF75C0FD
:101D900063FF76C064FF7BC0E9FF7CC0EAFFEECF43
:101DA00066FFEECF67FFEECF68FFEECF69FFEECFA5
:101DB0006AFFEECF6BFFEECF6CFFEFCF6DFF7AC007
:101DC00065FF12006FCF9BF20201820E686F7EC02A
:101DD00069F27FC06AF280C06BF281C06CF238ECAD
:101DE0000CF06DC28CF000018C5102E00101F18514
:101DF00012006FCF9BF28CC068F272EC0CF0010104
:101E0000F195120087C0E9FF88C0EAFF66CFEEFFB8
:101E100067CFEEFF68CFEEFF69CFEEFF6ACFEEFF30
:101E20006BCFEEFF6CCFEEFF6DCFEEFF0F0E6514A4
:101E30000001866F120082C061FF83C062FF84C010
:101E400063FF85C064FF8AC0E9FF8BC0EAFFEECF65
:101E500066FFEECF67FFEECF68FFEECF69FFEECFF4
:101E60006AFFEECF6BFFEECF6CFFEFCF6DFF89C047
:101E700065FF12006FCF9BF20201830E686F8DC069
:101E800069F28EC06AF28FC06BF290C06CF238ECCF
:101E90000CF06DC29BF000019B5102E00101F18743
:101EA00012006FCF9BF29BC068F272EC0CF0010144
:101EB000F197120096C0E9FF97C0EAFF66CFEEFFE8
:101EC00067CFEEFF68CFEEFF69CFEEFF6ACFEEFF80
:101ED0006BCFEEFF6CCFEEFF6DCFEEFF0F0E6514F4
:101EE0000001956F120091C061FF92C062FF93C024
:101EF00063FF94C064FF99C0E9FF9AC0EAFFEECF88
:101F000066FFEECF67FFEECF68FFEECF69FFEECF43
:101F10006AFFEECF6BFFEECF6CFFEFCF6DFF98C087
:041F200065FF120047
:0C1F2400D9CFE6FFE1CFD9FF080EE1267F
:101F3000DE6ADD6AD950020FE96EDACFEAFF9C0E45
:101F4000EE6E020EED6E040EDB6A050EDB6A060E07
:101F5000DB6A070EDB6A020EDBCFE9FF030EDBCF85
:101F6000EAFFEF506CE0020EDBCFE9FF030EDBCFA0
:101F7000EAFFEF502C0817E1DF2A010E01E3DB2A0C
:101F8000E76E020EDBCFE9FF030EDBCFEAFFE7507F
:101F9000E926000EEA22EF502C0805E0020EDB2AAB
:101FA000030E01E3DB2AD9CFE9FFDACFEAFF010E06
:101FB000EE181CE1ED501AE1020EDBCFE9FF030E33
:101FC000DBCFEAFFEF50E66E060EDBCFE9FF070E30
:101FD000DBCFEAFFE40EE926010EEA22E552E750E4
:101FE000EF6E060EDB2A070E01E3DB2AD9CFE9FFED
:101FF000DACFEAFF070EEE181CE1ED501AE1020EEF
:10200000DBCFE9FF030EDBCFEAFFEF50E66E040EF5
:10201000DBCFE9FF050EDBCFEAFFDE0EE926010E7E
:10202000EA22E552E750EF6E040EDB2A050E01E3CB
:10203000DB2A020EDB2A030E8EE3DB2A8CD7080E86
:10204000E15C02E2E16AE552E16EE552E7CFD9FFD9
:102050001200D9CFE6FFE1CFD9FF040EE126DE0E54
:10206000DE6E010EDD6E020EDB6A030EDB6A020E0F
:10207000DBCF14F0030EDBCF15F0D890155004E63B
:10208000060E145C000E155838E2DECFE9FFDDCFF6
:10209000EAFFEF50D00F146E156A14BE1568FD0EDE
:1020A000DBCFE9FFFE0EDBCFEAFF1450EE26155022
:1020B000ED22DECFE9FFDDCFEAFF010EE926000EBB
:1020C000EA22EF502E0819E0FD0EDBCFE9FFFE0EED
:1020D000DBCFEAFF0A0EEC02F3CFEDFFEF02F3CF06
:1020E000EEFFF450ED26DF2A010E01E3DB2A020E9B
:1020F000DB2A030EBCE3DB2ABAD7040EE15C02E262
:0E210000E16AE552E16EE552E7CFD9FF120029
:02210E000000CF
:1021100000000100002601000E210200002601003F
:102120000E210300002602000E21040000260400F8
:102130000E210500002601000E21060000260200E7
:102140000E210700002604000E21001000050400E7
:10215000B229011000010100E00202100001040098
:10216000E102051000130400F62308100005180012
:10217000B629091000050400C0290A100005040052
:10218000C5290C1000130200F2120D1000130100FB
:1021900084131710001302006012181000050100CC
:1021A000CA29181001050400CB29181002050400E3
:1021B000CF29181003050400D329181004050400C2
:1021C000D729001200050100DB29001201110400CB
:1021D0008C00001202110400CC0000180005010060
:1021E000682A001801130400D2100018021301001D
:1021F000B8110118000301000E21001A00050100AA
:10220000672A001A010504005A2A001A0205040070
:10221000622A001A03050400622A001A0405040059
:10222000622A001A05050400622A001A0605040045
:10223000622A001A07050400622A001A0805040031
:10224000622A011A000301000E2100200000010093
:102250000E210020000001000E210060000101009D
:10226000DD00026000050100662A02600103010032
:10227000D700036000050100662A03600103010026
:10228000D600056000050100662A05600103010013
:10229000DB00066000050100662A066001030100FC
:1022A000D800076000050100662A076001030100ED
:1022B000D900086000050100662A086001030100DA
:0A22C000DA00006200030100E500EF
:0622CA000201DBAB1ED097
:1022D000DAC2DCF2DBC2DDF2D890DC37DD37D89031
:1022E000DC37DD37D890DC37DD37DDC2DFF2030EB7
:1022F000DA15146EE00EDC1514100809DD6FDFC26C
:10230000DCF2D8C2DFF2D9C2DEF217D0050ED8C295
:10231000DCF2D9C2DDF2000A06E00201D890DC3717
:10232000DD37E804FBE10201DF6BDCC2DEF2DDC277
:10233000DCF2E00EDE15DD6FDE6BDBBFDD89DBBDC1
:10234000DD8512000201D9A71CD0D9C214F0D8C271
:1023500015F0030ED89015321432E804FBE114C0D6
:10236000DEF2200E02011510DF6F030ED915146E78
:10237000FC0EDE151410DE6FDBC2DCF2DAC2DDF219
:102380000ED0D9C214F0D8C215F0050ED89015326F
:102390001432E804FBE114C0DCF215C0DDF20201E6
:0A23A000D9B5DF8DD9B9DF8F120027
:0623AA006FCF9BF202015F
:1023B000020E686FF9C169F2FAC16AF2FBC16BF2F1
:1023C000FCC16CF238EC0CF06DC2FDF10101FD5165
:1023D00002E00101EF8312006FCF9BF2FDC168F2B2
:1023E00072EC0CF00101EF9312000F0E651402E184
:1023F000D5EC07F012000101D251020A1EE0030AD7
:1024000001E01200F9C1D8F2FAC1D9F2FBC1DAF247
:10241000FCC1DBF2A2EC11F0D0C1E9FFD1C1EAFFAF
:10242000EE50EFCFEAFFE96EDCC2EEFFDDC2EEFF59
:10243000DEC2EEFFDFC2EEFF1200D0C1E9FFD1C164
:10244000EAFFEE50EFCFEAFFE96EEECFD8F2EECF23
:10245000D9F2EECFDAF2EFCFDBF265EC11F0020148
:10246000DDB50BD0B9DFDCC2F9F1DDC2FAF1DEC2B5
:10247000FBF1DFC2FCF1D5EF11F00101120ED36FB9
:02248000120048
:0E248200400EE66EE66A2C0EE66EF8EC12F0E6
:10249000E552E552E552ACA2FED7340EE66E020ECE
:1024A000E66E19EC14F0E552E552ACA2FED79C0E94
:1024B000E66E010EE66E19EC14F0E552E552ACA2A0
:1024C000FED7680EE66E010EE66E19EC14F0E552CA
:1024D000E552ACA2FED7340EE66E010EE66E19ECA4
:1024E00014F0E552E552ACA2FED7000EE66E020EE5
:1024F000E66E19EC14F0E552E552ACA2FED71A0EC6
:10250000E66E010EE66E19EC14F0E552E55212008B
:10251000D9CFE6FFE1CFD9FFE652DF6A85EC14F0B0
:10252000DF6E240EDF5C0EE1280EE66E9C0EE66E7A
:10253000020EE66EBEEC13F0E552E552E552010ED6
:10254000F36E01D0F36AF46AE552E552E7CFD9FFA2
:02255000120077
:0E255200060EF66E000EF76E000EF86E020119
:102560000900F550D36F0900F550D46F03E1D3672C
:1025700001D03DD00900F550CE6F0900F550CF6F66
:102580000900F550D06F09000900F550E96E090007
:10259000F550EA6E090009000900F550D16F0900F5
:1025A000F550D26F09000900F6CFD5F2F7CFD6F279
:1025B000F8CFD7F2CEC2F6FFCFC2F7FFD0C2F8FFF6
:1025C0000201D15302E1D25307E00900F550EE6E4B
:1025D000D107F8E2D207F9D7D5C2F6FFD6C2F7FF86
:1025E000D7C2F8FF0201D307000ED45BBFD7120099
:1025F000D9CFE6FFDACFE6FFE1CFD9FFE2CFDAFFAE
:10260000AC6AAB6AFD0EDBB0AC88DBA202D0AC8C4E
:10261000AB8CDBB4AC8EDBA602D0AB8801D0AB8A2E
:10262000DBB8AC849E98DBBAAB86DBAC02D09D8A6B
:1026300001D09D9A9E9ADBAE02D09D8801D09D98D4
:10264000FB0EDB50AF6EFB0EFC0EDBCF15F015C0A2
:1026500014F0156A1450B06EAC8AAB8E949C948EB4
:10266000AC50100B04E0AC50800B01E1948CE552AF
:0A267000E5CFDAFFE7CFD9FF120033
:06267A006FCF9BF202018C
:10268000010E686F0201696B6A6B6B6B6C6B38ECE7
:102690000CF06DC2EAF20201EA5102E00101EF81A1
:1026A00012006FCF9BF2EAC268F272EC0CF00101EB
:1026B000EF9112000F0E6514020823E10101EC51A5
:1026C000675C02E067501DE16650820A16E0030A6B
:1026D00012E0010A0BE0820A06E0030A01E01200A0
:1026E0000101ED8305D00101ED8503D00101ED93DA
:1026F000ED9563EF14F082EC14F080EC14F0C0EC74
:042700000CF01200C7
:0C2704000101D251020A05E0030A03E0C3
:10271000010A01E0120012000101D251020A05E093
:10272000030A03E0010A01E0120012000101D25184
:10273000020A05E0030A03E0010A01E012001200A8
:102740000101D251020A05E0030A03E0010A01E097
:10275000120012000101D251020A05E0030A03E04F
:10276000010A01E0120012000101D251020A05E043
:0C277000030A03E0010A01E0120012005D
:04277C00D9CFE6FFCC
:10278000DACFE6FFE1CFD9FFE2CFDAFFE652E65239
:10279000DF6AFB0EDB50DF5C18E29EAAFED785ECF9
:1027A00014F0E76E010EE7CFDBFFFC0EDBCFE9FF95
:1027B000FD0EDBCFEAFF010EDBCFEFFFFC0EDB2AC5
:1027C000FD0E01E3DB2ADF2AE4D7E552E552E552AC
:0A27D000E5CFDAFFE7CFD9FF1200D2
:0627DA00EEEC14F0010119
:1027E000030EEC6F0101050EEE6F040E0001F96F90
:1027F000FA6B0001FB6BFC6B0001FD6B3FEC14F00E
:1028000041EC12F04EEC07F0C0EC0CF063EC14F06D
:102810000101EDA1FFD70101F281F28325EC15F052
:10282000A1EC07F0F5EC14F00009F8E00BEC0EF069
:02283000F5D7DA
:0E283200D9CFE6FFDACFE6FFE1CFD9FFE2CF44
:10284000DAFFACA2FED7FC0EDBCFE9FFFD0EDBCF3B
:10285000EAFFEF50E66EC2EC14F0E552FC0EDBCF5F
:10286000E9FFDB2AFD0EDBCFEAFF01E3DB2AEF50B5
:0E287000E8E1E552E5CFDAFFE7CFD9FF12002D
:02287E000F0E3B
:10288000C16E929092929294929696848090809249
:10289000809480961200D9CFE6FFE1CFD9FFE652AF
:1028A000DF6A84A408D00201EB5102E1010EDF6E61
:1028B000010EEB6F02D00201EB6BDF50E552E552E7
:0628C000E7CFD9FF120072
:0A28C6000101EDA503D0808280948B
:1028D0000BD0ED51010B0AE0ED51020B07E1ED5178
:1028E000040B04E18092808480961200ED51020B6B
:1028F00006E0ED51040B03E1809280948086120083
:0A290000FF00120012008C7012009C
:06290A00D9CFE6FFDACF91
:10291000E6FFE1CFD9FFE2CFDAFFE652F20E000187
:10292000FF17ABAC03D0FF91ABB0FF81ABB4FF8519
:10293000ABB2FF87AE50DF6EDF50E552E552E5CF18
:08294000DAFFE7CFD9FF120016
:0829480008C012F008500D0256
:10295000F4CF07F0F3CF06F009500E02F4CF09F0E0
:10296000F3CF08F00D02F3500726F4500822E86A6E
:10297000092212500E02F3500726F4500822E86A8A
:042980000922000C1C
:0C298400D9CFE6FFDACFE6FFE1CFD9FFA4
:10299000E2CFDAFFACAC04D0AC900001FFB3AC8066
:1029A000FD0EDB50AD6EE552E5CFDAFFE7CFD9FF84
:0229B000120013
:0E29B2004A930800554C5452414C4A5544007B
:1029C00056312E300056312E30000611112222339E
:0B29D0003322224444222255552222CB
:0129DB0003F8
:0429DC00470ED56E5F
:1029E000630ED66ED58EF2941200F2A407D00201C7
:0E29F000640EE96FE850D626F294010C000C3C
:0229FE00000EC9
:102A0000F36E00EE00F00D0E01D81200EA6002D065
:0E2A1000EE6AFCD7F350E9601200EE6AFCD7C4
:022A1E001CEEAC
:102A200000F02CEE00F0F86A019CA9EC12F035ECF5
:0A2A300015F0EDEC13F0FBD71200D7
:062A3A0012232902287995
:0A2A400094381223290228799438F3
:062A4A00FBEC0AF0E7ECD2
:0A2A50000CF056EC0DF0CFEF0DF086
:062A5A0008010060080104
:092A6000006208000000010802F8
:012A6900006C
:022A6A00120058
:042A6C00245053524D
:102A7000463130332C30352C30302C30302C303146
:102A80002A32310D0A0024505352463130332C3053
:102A9000352C30302C30312C30312A32300D0A00B8
:102AA00024505352463130332C30342C30302C30BB
:102AB000302C30312A32300D0A0024505352463126
:102AC00030332C30342C30302C30312C30312A3211
:042AD000310D0A00BA
:0C2AD40024505352463130332C30332C48
:102AE00030302C30302C30312A32370D0A0024504F
:102AF0005352463130332C30332C30302C30312C83
:082B000030312A32360D0A00C3
:082B08002450535246313033D2
:102B10002C30322C30302C30302C30312A32360DE3
:102B20000A0024505352463130332C30322C30308E
:0C2B30002C30312C30312A32370D0A00D5
:042B3C00245053527C
:102B4000463130332C30312C30302C30302C303179
:102B50002A32350D0A0024505352463130332C307E
:102B6000312C30302C30312C30312A32340D0A00E7
:102B700024505352463130332C30302C30302C30EE
:102B8000302C30312A32340D0A0024505352463151
:102B900030332C30302C30302C30312C30312A3244
:042BA000350D0A00E5
:042BA400000000002D
:082BA800000000000000000025
:062BB0000000000000001F
:0A2BB6000000000000000000000015
:102BC0000000000000000000000000000000000005
:102BD00000000000000000000000000000000000F5
:082BE0000000000000000000ED
:022BE8000100EA
:020000040030CA
:0100010002FC
:010002001FDE
:010003001EDE
:010005008278
:010006008178
:010008000FE8
:01000900C036
:01000A000FE6
:01000B00E014
:01000C000FE4
:01000D0040B2
:00000001FF
